:02000000B6291F
:10000800FF00030E8301AC000A08AD008A017008E6
:10001800A0000B1D1F29063081000B110710871047
:1000280007118711860147280A30F4002408F000D8
:10003800A5217808F0007008860007140130A60092
:1000480057280A30F4002408F000A521700886001B
:1000580087140230A60057280A30F4002508F0005B
:10006800A5217808F0007008860007150330A6005F
:1000780057280A30F4002508F000A52170088600EA
:100088008715A60157282608003A031918282608B4
:10009800013A031925282608023A031930282608A8
:1000A800033A03193D28F1010918F10A71082706D6
:1000B80003197F28003009180130A700091C782887
:1000C8000130A8002308003A031D6F280130A3005F
:1000D8000330A40077282308023A031D7728033049
:1000E800A3000330A5007F28A80189187E280230C4
:1000F800A3007F28A301091896282308003A031DA6
:100108008C2889188C280130A3000330A400962875
:100118002308023A031D9628891C96280330A30059
:100128000330A500A10A0319A20A00302202031D08
:100138009F28FA302102031C1F29A101A201091CD2
:10014800EC282808003A031DEC282408003C031872
:10015800AE28A4032508003C0318B328A503DB2810
:100168002408003A031DBC280130A9000330A4006C
:10017800EB282408003A031DC7280230A9000F30D5
:10018800A4000C30A500EB282508003A031DD02850
:100198000330A9000330A500EB282508003A031D09
:1001A800DA28A9011430A4001730A500EB28290883
:1001B800003A0319B4282908013A0319BD28290867
:1001C800023A0319C8282908033A0319D1281F2914
:1001D8002308013A031D07292408003C0318F528C1
:1001E800A4032408003A031D062928080319042932
:1001F800A8010230A9000F30A4000C30A500062980
:100208000230A3001F292308033A031D1F292508CC
:10021800003C03181029A5032508003A031D1F29CF
:10022800280803191E29A801A9011430A4001730B1
:10023800A5001F29A3012008F0002D088A002C0E14
:080248008300FF0E7F0E090088
:0E025000831203132B088A002A08820008007C
:10025E0028218A110A128000840AAA0A0319AB0AFD
:08026E00F003031D2F29080015
:1002760083120313091C71292808003A031D7129EA
:100286006029081588100810881208128815702928
:100296000811881408108812081288157029081188
:1002A60088100814881608128811702908118810F9
:1002B600081488120816881170292908003A0319AB
:1002C60044292908013A03194B292908023A031936
:1002D60052292908033A03195929A4299429A40162
:1002E600A501081588100810881208128815A42977
:1002F600A501081188140810881208128815A42967
:10030600A401A5010811881008148816081288117E
:10031600A429A40108118810081488120816881147
:10032600A4292308003A031972292308013A03195C
:100336007B292308023A031983292308033A031960
:040346008C290800F6
:10034A0083120313F8010830FC00700DF80D7408CD
:10035A00F8020318B229F8070310F00DFC0BAA29BA
:02036A00080089
:10036C0083120313A101A201A3011430A4001730BE
:10037C00A500A6010130A700A801A90183168601DA
:10038C00870188010330890006309F0083128601A3
:10039C00870188018918D5290230A300D629A30129
:1003AC003B218330831681000630831281008B162B
:0803BC008B173B21DF29E12929
:02400E004A2F37
:00000001FF
