:02000000C22913
:10000800FF00030E8301AD000A08AE008A017008E4
:10001800A1007108A0000B1D2929063081000B11D1
:1000280007108710071187112708003A031D3E287B
:100038000A30F4002508F000B1217808F0007008B3
:10004800B1000A30F4002608F000B1217808F00069
:100058007008F100F10D7110F10D7110F10D7110B2
:10006800F10D71107108310486000714071501306D
:10007800A7005A280A30F4002508F000B1217008BA
:10008800B1000A30F4002608F000B1217008F10030
:10009800F10D7110F10D7110F10D7110F10D71105C
:1000A80071083104860087148715A701F101091822
:1000B800F10A710828060319892800300918013047
:1000C800A800091C7B280130A9002408003A031D58
:1000D80072280130A4000330A5007A282408023AC7
:1000E800031D7A280330A4000330A6008928A9013B
:1000F800F1018918F10A7108003A031D86280230B7
:10010800B0008728B0013008A4000918A0282408E6
:10011800003A031D9628891896280130A400033058
:10012800A500A0282408023A031DA028891CA0289D
:100138000330A4000330A600A20A0319A30A003062
:100148002302031DA928FA302202031C2929A2012F
:10015800A301091CF6282908003A031DF6282508DA
:10016800003C0318B828A5032608003C0318BD283E
:10017800A603E5282508003A031DC6280130AA0071
:100188000330A500F5282508003A031DD1280230C0
:10019800AA000F30A5000C30A600F5282608003A62
:1001A800031DDA280330AA000330A600F528260824
:1001B800003A031DE428AA011430A5001730A60050
:1001C800F5282A08003A0319BE282A08013A031913
:1001D800C7282A08023A0319D2282A08033A031919
:1001E800DB2829292408013A031D11292508003C88
:1001F8000318FF28A5032508003A031D102929081C
:1002080003190E29A9010230AA000F30A5000C30ED
:10021800A60010290230A40029292408033A031D46
:1002280029292608003C03181A29A6032608003A9B
:10023800031D2929290803192829A901AA0114300D
:10024800A5001730A6002929A4012108F0002008DC
:10025800F1002E088A002D0E8300FF0E7F0E090084
:0E026800831203132C088A002B088200080062
:1002760034218A110A128000840AAB0A0319AC0AD7
:08028600F003031D3B290800F1
:10028E0083120313091C7D292908003A031D7D29B9
:10029E006C290815881008108812081288157C29F8
:1002AE000811881408108812081288157C29081164
:1002BE00881008148816081288117C2908118810D5
:1002CE0008148812081688117C292A08003A031986
:1002DE0050292A08013A031957292A08023A031904
:1002EE005E292A08033A03196529B029A029A50118
:1002FE00A601081588100810881208128815B02952
:10030E00A601081188140810881208128815B02941
:10031E00A501A60108118810081488160812881164
:10032E00B029A50108118810081488120816881122
:10033E00B0292408003A03197E292408013A03192A
:10034E0087292408023A03198F292408033A03192E
:04035E0098290800D2
:1003620083120313F8010830FC00700DF80D7408B5
:10037200F8020318BE29F8070310F00DFC0BB6298A
:02038200080071
:1003840083120313A201A301A4011430A5001730A2
:10039400A600A7010130A800A901AA0183168601BD
:1003A400870188010330890006309F00831286018B
:1003B40087018801F1018918F10A7108003A031DC7
:1003C400E6290230AF00E729AF012F08A400472136
:1003D4008330831681000630831281008B168B17BD
:0603E4004721F229F42973
:02400E004A2F37
:00000001FF
